{
    "_format": "hh-sol-artifact-1",
    "contractName": "ContentBridge",
    "sourceName": "contracts/ContentBridge.sol",
    "abi": [
        {
            "inputs": [],
            "stateMutability": "nonpayable",
            "type": "constructor"
        },
        {
            "inputs": [],
            "name": "AccessControlBadConfirmation",
            "type": "error"
        },
        {
            "inputs": [
                {
                    "internalType": "address",
                    "name": "account",
                    "type": "address"
                },
                {
                    "internalType": "bytes32",
                    "name": "neededRole",
                    "type": "bytes32"
                }
            ],
            "name": "AccessControlUnauthorizedAccount",
            "type": "error"
        },
        {
            "anonymous": false,
            "inputs": [
                {
                    "indexed": true,
                    "internalType": "uint256",
                    "name": "id",
                    "type": "uint256"
                },
                {
                    "indexed": false,
                    "internalType": "string",
                    "name": "data",
                    "type": "string"
                },
                {
                    "indexed": true,
                    "internalType": "address",
                    "name": "uploader",
                    "type": "address"
                }
            ],
            "name": "ContentAdded",
            "type": "event"
        },
        {
            "anonymous": false,
            "inputs": [
                {
                    "indexed": true,
                    "internalType": "uint256",
                    "name": "id",
                    "type": "uint256"
                }
            ],
            "name": "ContentRemoved",
            "type": "event"
        },
        {
            "anonymous": false,
            "inputs": [
                {
                    "indexed": true,
                    "internalType": "uint256",
                    "name": "id",
                    "type": "uint256"
                },
                {
                    "indexed": false,
                    "internalType": "string",
                    "name": "data",
                    "type": "string"
                }
            ],
            "name": "ContentUpdated",
            "type": "event"
        },
        {
            "anonymous": false,
            "inputs": [
                {
                    "indexed": true,
                    "internalType": "bytes32",
                    "name": "role",
                    "type": "bytes32"
                },
                {
                    "indexed": true,
                    "internalType": "bytes32",
                    "name": "previousAdminRole",
                    "type": "bytes32"
                },
                {
                    "indexed": true,
                    "internalType": "bytes32",
                    "name": "newAdminRole",
                    "type": "bytes32"
                }
            ],
            "name": "RoleAdminChanged",
            "type": "event"
        },
        {
            "anonymous": false,
            "inputs": [
                {
                    "indexed": true,
                    "internalType": "bytes32",
                    "name": "role",
                    "type": "bytes32"
                },
                {
                    "indexed": true,
                    "internalType": "address",
                    "name": "account",
                    "type": "address"
                },
                {
                    "indexed": true,
                    "internalType": "address",
                    "name": "sender",
                    "type": "address"
                }
            ],
            "name": "RoleGranted",
            "type": "event"
        },
        {
            "anonymous": false,
            "inputs": [
                {
                    "indexed": true,
                    "internalType": "bytes32",
                    "name": "role",
                    "type": "bytes32"
                },
                {
                    "indexed": true,
                    "internalType": "address",
                    "name": "account",
                    "type": "address"
                },
                {
                    "indexed": true,
                    "internalType": "address",
                    "name": "sender",
                    "type": "address"
                }
            ],
            "name": "RoleRevoked",
            "type": "event"
        },
        {
            "inputs": [],
            "name": "ADMIN_ROLE",
            "outputs": [
                {
                    "internalType": "bytes32",
                    "name": "",
                    "type": "bytes32"
                }
            ],
            "stateMutability": "view",
            "type": "function"
        },
        {
            "inputs": [],
            "name": "DEFAULT_ADMIN_ROLE",
            "outputs": [
                {
                    "internalType": "bytes32",
                    "name": "",
                    "type": "bytes32"
                }
            ],
            "stateMutability": "view",
            "type": "function"
        },
        {
            "inputs": [
                {
                    "internalType": "string",
                    "name": "_data",
                    "type": "string"
                }
            ],
            "name": "addContent",
            "outputs": [],
            "stateMutability": "nonpayable",
            "type": "function"
        },
        {
            "inputs": [],
            "name": "contentCount",
            "outputs": [
                {
                    "internalType": "uint256",
                    "name": "",
                    "type": "uint256"
                }
            ],
            "stateMutability": "view",
            "type": "function"
        },
        {
            "inputs": [
                {
                    "internalType": "uint256",
                    "name": "",
                    "type": "uint256"
                }
            ],
            "name": "contents",
            "outputs": [
                {
                    "internalType": "string",
                    "name": "data",
                    "type": "string"
                },
                {
                    "internalType": "address",
                    "name": "uploader",
                    "type": "address"
                },
                {
                    "internalType": "bool",
                    "name": "exists",
                    "type": "bool"
                }
            ],
            "stateMutability": "view",
            "type": "function"
        },
        {
            "inputs": [],
            "name": "getAllContents",
            "outputs": [
                {
                    "internalType": "string[]",
                    "name": "",
                    "type": "string[]"
                },
                {
                    "internalType": "address[]",
                    "name": "",
                    "type": "address[]"
                }
            ],
            "stateMutability": "view",
            "type": "function"
        },
        {
            "inputs": [
                {
                    "internalType": "uint256",
                    "name": "_id",
                    "type": "uint256"
                }
            ],
            "name": "getContent",
            "outputs": [
                {
                    "internalType": "string",
                    "name": "",
                    "type": "string"
                },
                {
                    "internalType": "address",
                    "name": "",
                    "type": "address"
                }
            ],
            "stateMutability": "view",
            "type": "function"
        },
        {
            "inputs": [],
            "name": "getContentCount",
            "outputs": [
                {
                    "internalType": "uint256",
                    "name": "",
                    "type": "uint256"
                }
            ],
            "stateMutability": "view",
            "type": "function"
        },
        {
            "inputs": [
                {
                    "internalType": "bytes32",
                    "name": "role",
                    "type": "bytes32"
                }
            ],
            "name": "getRoleAdmin",
            "outputs": [
                {
                    "internalType": "bytes32",
                    "name": "",
                    "type": "bytes32"
                }
            ],
            "stateMutability": "view",
            "type": "function"
        },
        {
            "inputs": [
                {
                    "internalType": "bytes32",
                    "name": "role",
                    "type": "bytes32"
                },
                {
                    "internalType": "address",
                    "name": "account",
                    "type": "address"
                }
            ],
            "name": "grantRole",
            "outputs": [],
            "stateMutability": "nonpayable",
            "type": "function"
        },
        {
            "inputs": [
                {
                    "internalType": "bytes32",
                    "name": "role",
                    "type": "bytes32"
                },
                {
                    "internalType": "address",
                    "name": "account",
                    "type": "address"
                }
            ],
            "name": "hasRole",
            "outputs": [
                {
                    "internalType": "bool",
                    "name": "",
                    "type": "bool"
                }
            ],
            "stateMutability": "view",
            "type": "function"
        },
        {
            "inputs": [
                {
                    "internalType": "uint256",
                    "name": "_id",
                    "type": "uint256"
                }
            ],
            "name": "removeContent",
            "outputs": [],
            "stateMutability": "nonpayable",
            "type": "function"
        },
        {
            "inputs": [
                {
                    "internalType": "bytes32",
                    "name": "role",
                    "type": "bytes32"
                },
                {
                    "internalType": "address",
                    "name": "callerConfirmation",
                    "type": "address"
                }
            ],
            "name": "renounceRole",
            "outputs": [],
            "stateMutability": "nonpayable",
            "type": "function"
        },
        {
            "inputs": [
                {
                    "internalType": "bytes32",
                    "name": "role",
                    "type": "bytes32"
                },
                {
                    "internalType": "address",
                    "name": "account",
                    "type": "address"
                }
            ],
            "name": "revokeRole",
            "outputs": [],
            "stateMutability": "nonpayable",
            "type": "function"
        },
        {
            "inputs": [
                {
                    "internalType": "bytes4",
                    "name": "interfaceId",
                    "type": "bytes4"
                }
            ],
            "name": "supportsInterface",
            "outputs": [
                {
                    "internalType": "bool",
                    "name": "",
                    "type": "bool"
                }
            ],
            "stateMutability": "view",
            "type": "function"
        },
        {
            "inputs": [
                {
                    "internalType": "uint256",
                    "name": "_id",
                    "type": "uint256"
                },
                {
                    "internalType": "string",
                    "name": "_data",
                    "type": "string"
                }
            ],
            "name": "updateContent",
            "outputs": [],
            "stateMutability": "nonpayable",
            "type": "function"
        }
    ],
    "bytecode": "0x608060405234801561001057600080fd5b506100246000801b3361005b60201b60201c565b506100557fa49807205ce4d355092ef5a8a18f56e8913cf4a201fbe287825b095693c217753361005b60201b60201c565b506101ca565b600061006d838361015860201b60201c565b61014d57600160008085815260200190815260200160002060000160008473ffffffffffffffffffffffffffffffffffffffff1673ffffffffffffffffffffffffffffffffffffffff16815260200190815260200160002060006101000a81548160ff0219169083151502179055506100ea6101c260201b60201c565b73ffffffffffffffffffffffffffffffffffffffff168273ffffffffffffffffffffffffffffffffffffffff16847f2f8788117e7eff1d82e926ec794901d17c78024a50270940304540a733656f0d60405160405180910390a460019050610152565b600090505b92915050565b600080600084815260200190815260200160002060000160008373ffffffffffffffffffffffffffffffffffffffff1673ffffffffffffffffffffffffffffffffffffffff16815260200190815260200160002060009054906101000a900460ff16905092915050565b600033905090565b611df5806101d96000396000f3fe608060405234801561001057600080fd5b50600436106101005760003560e01c806374449ca411610097578063a217fddf11610066578063a217fddf146102ad578063b5ecf912146102cb578063cc459696146102fd578063d547741f1461031b57610100565b806374449ca41461022557806375b238fc1461024357806382f8fc5d1461026157806391d148541461027d57610100565b806325612dc6116100d357806325612dc6146101b25780632892c4d8146101ce5780632f2ff15d146101ed57806336568abe1461020957610100565b806301ffc9a7146101055780630b7ad54c146101355780630f64253d14610166578063248a9ca314610182575b600080fd5b61011f600480360381019061011a91906111ef565b610337565b60405161012c9190611237565b60405180910390f35b61014f600480360381019061014a9190611288565b6103b1565b60405161015d929190611386565b60405180910390f35b610180600480360381019061017b9190611288565b610551565b005b61019c600480360381019061019791906113ec565b6106ae565b6040516101a99190611428565b60405180910390f35b6101cc60048036038101906101c79190611578565b6106cd565b005b6101d66107f9565b6040516101e492919061179e565b60405180910390f35b61020760048036038101906102029190611801565b610a8b565b005b610223600480360381019061021e9190611801565b610aad565b005b61022d610b28565b60405161023a9190611850565b60405180910390f35b61024b610b32565b6040516102589190611428565b60405180910390f35b61027b6004803603810190610276919061186b565b610b56565b005b61029760048036038101906102929190611801565b610cf4565b6040516102a49190611237565b60405180910390f35b6102b5610d5e565b6040516102c29190611428565b60405180910390f35b6102e560048036038101906102e09190611288565b610d65565b6040516102f4939291906118b4565b60405180910390f35b610305610e44565b6040516103129190611850565b60405180910390f35b61033560048036038101906103309190611801565b610e4a565b005b60007f7965db0b000000000000000000000000000000000000000000000000000000007bffffffffffffffffffffffffffffffffffffffffffffffffffffffff1916827bffffffffffffffffffffffffffffffffffffffffffffffffffffffff191614806103aa57506103a982610e6c565b5b9050919050565b606060006001600084815260200190815260200160002060010160149054906101000a900460ff16610418576040517f08c379a000000000000000000000000000000000000000000000000000000000815260040161040f9061193e565b60405180910390fd5b6000600160008581526020019081526020016000206040518060600160405290816000820180546104489061198d565b80601f01602080910402602001604051908101604052809291908181526020018280546104749061198d565b80156104c15780601f10610496576101008083540402835291602001916104c1565b820191906000526020600020905b8154815290600101906020018083116104a457829003601f168201915b505050505081526020016001820160009054906101000a900473ffffffffffffffffffffffffffffffffffffffff1673ffffffffffffffffffffffffffffffffffffffff1673ffffffffffffffffffffffffffffffffffffffff1681526020016001820160149054906101000a900460ff1615151515815250509050806000015181602001519250925050915091565b61057b7fa49807205ce4d355092ef5a8a18f56e8913cf4a201fbe287825b095693c2177533610cf4565b6105ba576040517f08c379a00000000000000000000000000000000000000000000000000000000081526004016105b190611a30565b60405180910390fd5b6001600082815260200190815260200160002060010160149054906101000a900460ff1661061d576040517f08c379a00000000000000000000000000000000000000000000000000000000081526004016106149061193e565b60405180910390fd5b60016000828152602001908152602001600020600080820160006106419190611126565b6001820160006101000a81549073ffffffffffffffffffffffffffffffffffffffff02191690556001820160146101000a81549060ff02191690555050807f5f8fe94b2220a1470876035c39303eab7d2417baf0eb9a50aaf529e3a3524aa660405160405180910390a250565b6000806000838152602001908152602001600020600101549050919050565b6106f77fa49807205ce4d355092ef5a8a18f56e8913cf4a201fbe287825b095693c2177533610cf4565b610736576040517f08c379a000000000000000000000000000000000000000000000000000000000815260040161072d90611a30565b60405180910390fd5b6001600083815260200190815260200160002060010160149054906101000a900460ff16610799576040517f08c379a00000000000000000000000000000000000000000000000000000000081526004016107909061193e565b60405180910390fd5b806001600084815260200190815260200160002060000190816107bc9190611bfc565b50817f4071afae07e623612645169abd4d62a6bd5932a996b14deac10d9903faccea54826040516107ed9190611cce565b60405180910390a25050565b606080600060025467ffffffffffffffff81111561081a5761081961144d565b5b60405190808252806020026020018201604052801561084d57816020015b60608152602001906001900390816108385790505b509050600060025467ffffffffffffffff81111561086e5761086d61144d565b5b60405190808252806020026020018201604052801561089c5781602001602082028036833780820191505090505b50905060005b600254811015610a7e576001600082815260200190815260200160002060010160149054906101000a900460ff1615610a71576000600160008381526020019081526020016000206040518060600160405290816000820180546109059061198d565b80601f01602080910402602001604051908101604052809291908181526020018280546109319061198d565b801561097e5780601f106109535761010080835404028352916020019161097e565b820191906000526020600020905b81548152906001019060200180831161096157829003601f168201915b505050505081526020016001820160009054906101000a900473ffffffffffffffffffffffffffffffffffffffff1673ffffffffffffffffffffffffffffffffffffffff1673ffffffffffffffffffffffffffffffffffffffff1681526020016001820160149054906101000a900460ff16151515158152505090508060000151848381518110610a1257610a11611cf0565b5b60200260200101819052508060200151838381518110610a3557610a34611cf0565b5b602002602001019073ffffffffffffffffffffffffffffffffffffffff16908173ffffffffffffffffffffffffffffffffffffffff1681525050505b80806001019150506108a2565b5081819350935050509091565b610a94826106ae565b610a9d81610ed6565b610aa78383610eea565b50505050565b610ab5610fdb565b73ffffffffffffffffffffffffffffffffffffffff168173ffffffffffffffffffffffffffffffffffffffff1614610b19576040517f6697b23200000000000000000000000000000000000000000000000000000000815260040160405180910390fd5b610b238282610fe3565b505050565b6000600254905090565b7fa49807205ce4d355092ef5a8a18f56e8913cf4a201fbe287825b095693c2177581565b610b807fa49807205ce4d355092ef5a8a18f56e8913cf4a201fbe287825b095693c2177533610cf4565b610bbf576040517f08c379a0000000000000000000000000000000000000000000000000000000008152600401610bb690611a30565b60405180910390fd5b60405180606001604052808281526020013373ffffffffffffffffffffffffffffffffffffffff168152602001600115158152506001600060025481526020019081526020016000206000820151816000019081610c1d9190611bfc565b5060208201518160010160006101000a81548173ffffffffffffffffffffffffffffffffffffffff021916908373ffffffffffffffffffffffffffffffffffffffff16021790555060408201518160010160146101000a81548160ff0219169083151502179055509050503373ffffffffffffffffffffffffffffffffffffffff166002547fb985ab45e70555bc41b11dbf70e1c742694bd6666c9cd255655fed28bf6a28f283604051610cd19190611cce565b60405180910390a360026000815480929190610cec90611d4e565b919050555050565b600080600084815260200190815260200160002060000160008373ffffffffffffffffffffffffffffffffffffffff1673ffffffffffffffffffffffffffffffffffffffff16815260200190815260200160002060009054906101000a900460ff16905092915050565b6000801b81565b6001602052806000526040600020600091509050806000018054610d889061198d565b80601f0160208091040260200160405190810160405280929190818152602001828054610db49061198d565b8015610e015780601f10610dd657610100808354040283529160200191610e01565b820191906000526020600020905b815481529060010190602001808311610de457829003601f168201915b5050505050908060010160009054906101000a900473ffffffffffffffffffffffffffffffffffffffff16908060010160149054906101000a900460ff16905083565b60025481565b610e53826106ae565b610e5c81610ed6565b610e668383610fe3565b50505050565b60007f01ffc9a7000000000000000000000000000000000000000000000000000000007bffffffffffffffffffffffffffffffffffffffffffffffffffffffff1916827bffffffffffffffffffffffffffffffffffffffffffffffffffffffff1916149050919050565b610ee781610ee2610fdb565b6110d5565b50565b6000610ef68383610cf4565b610fd057600160008085815260200190815260200160002060000160008473ffffffffffffffffffffffffffffffffffffffff1673ffffffffffffffffffffffffffffffffffffffff16815260200190815260200160002060006101000a81548160ff021916908315150217905550610f6d610fdb565b73ffffffffffffffffffffffffffffffffffffffff168273ffffffffffffffffffffffffffffffffffffffff16847f2f8788117e7eff1d82e926ec794901d17c78024a50270940304540a733656f0d60405160405180910390a460019050610fd5565b600090505b92915050565b600033905090565b6000610fef8383610cf4565b156110ca57600080600085815260200190815260200160002060000160008473ffffffffffffffffffffffffffffffffffffffff1673ffffffffffffffffffffffffffffffffffffffff16815260200190815260200160002060006101000a81548160ff021916908315150217905550611067610fdb565b73ffffffffffffffffffffffffffffffffffffffff168273ffffffffffffffffffffffffffffffffffffffff16847ff6391f5c32d9c69d2a47ea670b442974b53935d1edc7fd64eb21e047a839171b60405160405180910390a4600190506110cf565b600090505b92915050565b6110df8282610cf4565b6111225780826040517fe2517d3f000000000000000000000000000000000000000000000000000000008152600401611119929190611d96565b60405180910390fd5b5050565b5080546111329061198d565b6000825580601f106111445750611163565b601f0160209004906000526020600020908101906111629190611166565b5b50565b5b8082111561117f576000816000905550600101611167565b5090565b6000604051905090565b600080fd5b600080fd5b60007fffffffff0000000000000000000000000000000000000000000000000000000082169050919050565b6111cc81611197565b81146111d757600080fd5b50565b6000813590506111e9816111c3565b92915050565b6000602082840312156112055761120461118d565b5b6000611213848285016111da565b91505092915050565b60008115159050919050565b6112318161121c565b82525050565b600060208201905061124c6000830184611228565b92915050565b6000819050919050565b61126581611252565b811461127057600080fd5b50565b6000813590506112828161125c565b92915050565b60006020828403121561129e5761129d61118d565b5b60006112ac84828501611273565b91505092915050565b600081519050919050565b600082825260208201905092915050565b60005b838110156112ef5780820151818401526020810190506112d4565b60008484015250505050565b6000601f19601f8301169050919050565b6000611317826112b5565b61132181856112c0565b93506113318185602086016112d1565b61133a816112fb565b840191505092915050565b600073ffffffffffffffffffffffffffffffffffffffff82169050919050565b600061137082611345565b9050919050565b61138081611365565b82525050565b600060408201905081810360008301526113a0818561130c565b90506113af6020830184611377565b9392505050565b6000819050919050565b6113c9816113b6565b81146113d457600080fd5b50565b6000813590506113e6816113c0565b92915050565b6000602082840312156114025761140161118d565b5b6000611410848285016113d7565b91505092915050565b611422816113b6565b82525050565b600060208201905061143d6000830184611419565b92915050565b600080fd5b600080fd5b7f4e487b7100000000000000000000000000000000000000000000000000000000600052604160045260246000fd5b611485826112fb565b810181811067ffffffffffffffff821117156114a4576114a361144d565b5b80604052505050565b60006114b7611183565b90506114c3828261147c565b919050565b600067ffffffffffffffff8211156114e3576114e261144d565b5b6114ec826112fb565b9050602081019050919050565b82818337600083830152505050565b600061151b611516846114c8565b6114ad565b90508281526020810184848401111561153757611536611448565b5b6115428482856114f9565b509392505050565b600082601f83011261155f5761155e611443565b5b813561156f848260208601611508565b91505092915050565b6000806040838503121561158f5761158e61118d565b5b600061159d85828601611273565b925050602083013567ffffffffffffffff8111156115be576115bd611192565b5b6115ca8582860161154a565b9150509250929050565b600081519050919050565b600082825260208201905092915050565b6000819050602082019050919050565b600082825260208201905092915050565b600061161c826112b5565b6116268185611600565b93506116368185602086016112d1565b61163f816112fb565b840191505092915050565b60006116568383611611565b905092915050565b6000602082019050919050565b6000611676826115d4565b61168081856115df565b935083602082028501611692856115f0565b8060005b858110156116ce57848403895281516116af858261164a565b94506116ba8361165e565b925060208a01995050600181019050611696565b50829750879550505050505092915050565b600081519050919050565b600082825260208201905092915050565b6000819050602082019050919050565b61171581611365565b82525050565b6000611727838361170c565b60208301905092915050565b6000602082019050919050565b600061174b826116e0565b61175581856116eb565b9350611760836116fc565b8060005b83811015611791578151611778888261171b565b975061178383611733565b925050600181019050611764565b5085935050505092915050565b600060408201905081810360008301526117b8818561166b565b905081810360208301526117cc8184611740565b90509392505050565b6117de81611365565b81146117e957600080fd5b50565b6000813590506117fb816117d5565b92915050565b600080604083850312156118185761181761118d565b5b6000611826858286016113d7565b9250506020611837858286016117ec565b9150509250929050565b61184a81611252565b82525050565b60006020820190506118656000830184611841565b92915050565b6000602082840312156118815761188061118d565b5b600082013567ffffffffffffffff81111561189f5761189e611192565b5b6118ab8482850161154a565b91505092915050565b600060608201905081810360008301526118ce818661130c565b90506118dd6020830185611377565b6118ea6040830184611228565b949350505050565b7f436f6e74656e7420494420646f6573206e6f7420657869737400000000000000600082015250565b60006119286019836112c0565b9150611933826118f2565b602082019050919050565b600060208201905081810360008301526119578161191b565b9050919050565b7f4e487b7100000000000000000000000000000000000000000000000000000000600052602260045260246000fd5b600060028204905060018216806119a557607f821691505b6020821081036119b8576119b761195e565b5b50919050565b7f4163636573732064656e6965643a2052657175697265732041444d494e5f524f60008201527f4c45000000000000000000000000000000000000000000000000000000000000602082015250565b6000611a1a6022836112c0565b9150611a25826119be565b604082019050919050565b60006020820190508181036000830152611a4981611a0d565b9050919050565b60008190508160005260206000209050919050565b60006020601f8301049050919050565b600082821b905092915050565b600060088302611ab27fffffffffffffffffffffffffffffffffffffffffffffffffffffffffffffffff82611a75565b611abc8683611a75565b95508019841693508086168417925050509392505050565b6000819050919050565b6000611af9611af4611aef84611252565b611ad4565b611252565b9050919050565b6000819050919050565b611b1383611ade565b611b27611b1f82611b00565b848454611a82565b825550505050565b600090565b611b3c611b2f565b611b47818484611b0a565b505050565b5b81811015611b6b57611b60600082611b34565b600181019050611b4d565b5050565b601f821115611bb057611b8181611a50565b611b8a84611a65565b81016020851015611b99578190505b611bad611ba585611a65565b830182611b4c565b50505b505050565b600082821c905092915050565b6000611bd360001984600802611bb5565b1980831691505092915050565b6000611bec8383611bc2565b9150826002028217905092915050565b611c05826112b5565b67ffffffffffffffff811115611c1e57611c1d61144d565b5b611c28825461198d565b611c33828285611b6f565b600060209050601f831160018114611c665760008415611c54578287015190505b611c5e8582611be0565b865550611cc6565b601f198416611c7486611a50565b60005b82811015611c9c57848901518255600182019150602085019450602081019050611c77565b86831015611cb95784890151611cb5601f891682611bc2565b8355505b6001600288020188555050505b505050505050565b60006020820190508181036000830152611ce8818461130c565b905092915050565b7f4e487b7100000000000000000000000000000000000000000000000000000000600052603260045260246000fd5b7f4e487b7100000000000000000000000000000000000000000000000000000000600052601160045260246000fd5b6000611d5982611252565b91507fffffffffffffffffffffffffffffffffffffffffffffffffffffffffffffffff8203611d8b57611d8a611d1f565b5b600182019050919050565b6000604082019050611dab6000830185611377565b611db86020830184611419565b939250505056fea2646970667358221220d04d236625fa883e576f25942c05d412621dc5a91373041076413cc0c3526b6c64736f6c634300081c0033",
    "linkReferences": {},
    "deployedLinkReferences": {}
}